S00F00004156522046414E2E7372656337
S11300000EC026C025C024C059C022C021C020C0B3
S113001036C01EC01DC01CC01BC01AC019C011248C
S11300201FBECFEDCDBF10E0A0E6B0E0EEEDF0E0F6
S113003002C005900D92A236B107D9F720E0A2E6DE
S1130040B0E001C01D92A636B207E1F709D045C061
S1130050D7CF86B18D6886B9399A0895369A0895AE
S11300607894F7DFFBDF87B3836087BB8FE98DBDAF
S113007080B7826680BF89B7846089BFFFCF1F9233
S11300800F920FB60F9211248F939F9384B195B161
S1130090909363008093620080916200909163006A
S11300A0969587959695879580936000369A9F914B
S11300B08F910F900FBE0F901F9018951F920F9263
S11300C00FB60F9211248F93809160008EBD8F9193
S11100D00F900FBE0F901F901895F894FFCF5D
S10500DE7F009D
S9030000FC
